:02000002F0000C
:104000000000042021B30F0049B30F004BB30F0091
:104010004DB30F004FB30F0051B30F00000000006D
:10402000000000000000000000000000F1450F004B
:1040300055B30F000000000057B30F009D4E0F0056
:10404000B14F0F005BB30F005BB30F005BB30F000A
:104050005BB30F005BB30F005BB30F005BB30F00EC
:104060005BB30F005BB30F005BB30F005BB30F00DC
:104070005BB30F005BB30F005BB30F005BB30F00CC
:104080005BB30F007D730F005BB30F005BB30F00DA
:1040900031740F005BB30F00D54B0F005BB30F0003
:1040A0005BB30F005BB30F005BB30F005BB30F009C
:1040B0005BB30F005BB30F000000000000000000C6
:1040C0005BB30F005BB30F005BB30F005BB30F007C
:1040D0005BB30F005BB30F005BB30F00D9850F001C
:1040E0005BB30F005BB30F005BB30F000000000079
:1040F000000000005BB30F00000000005BB30F0086
:1041000000000000000000000000000000000000AF
:10411000000000000000000000000000000000009F
:10412000000000000000000000000000000000008F
:10413000000000000000000000000000000000007F
:10414000000000000000000000000000000000006F
:10415000000000000000000000000000000000005F
:10416000000000000000000000000000000000004F
:10417000000000000000000000000000000000003F
:10418000000000000000000000000000000000002F
:10419000000000000000000000000000000000001F
:1041A000000000000000000000000000000000000F
:1041B00000000000000000000000000000000000FF
:1041C00000000000000000000000000000000000EF
:1041D00000000000000000000000000000000000DF
:1041E00000000000000000000000000000000000CF
:1041F00000000000000000000000000000000000BF
:104200000348044B834202D0034B03B11847704765
:10421000A4820020A4820020000000000548064B74
:104220001B1AD90F01EBA301491002D0034B03B1B4
:1042300018477047A4820020A482002000000000DC
:1042400010B5064C237843B9FFF7DAFF044B13B1DE
:104250000448AFF300800123237010BDA482002026
:1042600000000000F8B90F0008B5054B1BB1054967
:104270000548AFF30080BDE80840FFF7CFBF00BF9F
:1042800000000000A8820020F8B90F00A3F5803AD2
:10429000704700BF174B002B08BF134B9D46FFF71D
:1042A000F5FF00218B460F461348144A121A00F0FE
:1042B00039F80E4B002B00D098470D4B002B00D047
:1042C00098470020002104000D000D48002802D06E
:1042D0000C4800F00BF900F073F82000290000F002
:1042E0009BFA00F011F800BF000008000000000079
:1042F0000000000000000420A482002008CC002060
:10430000ED440F00F9440F0008B50021044600F009
:104310008DF8034B1B6803B19847204600F040F925
:10432000C0820020830730B546D08418844604E05C
:1043300003F8011B9D0704D09C46A4456346F7D1B2
:1043400030BD013A0244A2EB0C02032A29D9CCB2B7
:1043500004EB04240F2A04EB04442FD9A2F1100C1F
:104360002CF00F0C03F11005AC44C3E90044C3E981
:10437000024410336345F8D112F00C0F02F00F0E17
:1043800018D02EF0030C9C44AEF104051A4642F8F6
:10439000044B6245FBD125F0030404330EF0030205
:1043A0002344002ACCD0C9B21A4403F8011B93421B
:1043B000FBD130BD7246F4E70346C6E79646E0E718
:1043C00070B50F4B0F4DAB42A3EB050607D0B610EF
:1043D000002455F8043B01349847A642F9D807F069
:1043E000E5F9094D094B5E1BAB424FEAA60606D024
:1043F000002455F8043B01349847A642F9D870BD13
:10440000988200209882002098820020A0820020BC
:10441000704700BF704700BF024B13B1024800F065
:1044200065B8704700000000F9440F002DE9F04F17
:104430002C4B2D4F83B082461868CDF804A08B46D4
:10444000FFF7E6FF3E68AEB14FF000094FF00108FC
:104450007468651E0ED4013406EB8404BBF1000FB2
:104460000FD0D4F800315B450BD0013D6A1CA4F19C
:104470000404F6D11B4B186803B0BDE8F04FFFF7FA
:10448000C9BF73682268013BAB420CBF7560C4F8BA
:10449000009072B1D6F88811D6F804A008FA05F396
:1044A0000B420CD1904773683A68534513D1B2421E
:1044B00011D1013D6B1CA4F10404CFD1DAE7D6F889
:1044C0008C01D4F88010034209D101989047736899
:1044D0003A685345EBD0002ACCD01646B8E70846D8
:1044E0009047E0E700800020C882002000230146BA
:1044F0001A46184600F014B838B5074D074C2C1B67
:10450000A41005D0013C55F8043D9847002CF9D182
:10451000BDE8384007F050B9A4820020A0820020F6
:104520002DE9F8431B4D0646286898460F469146EC
:10453000FFF76EFF184B1C681CB3286865681F2DB9
:1045400022DC4EB96B1C0235636044F82570FFF71E
:1045500061FF0020BDE8F88304EB85010123C1F869
:104560008890D4F88821AB401A43022EC4F88821E1
:10457000C1F80881E6D1D4F88C211A43C4F88C2103
:10458000E0E7064C1C60D8E7FFF744FF4FF0FF3030
:10459000E0E700BF00800020C8820020CC8200201D
:1045A000FEE700BF10B50C46E0B90968C1B10E487E
:1045B000814207D0431A3B2B0ED83C235A5CC2548D
:1045C000013BFBD2084800223C2103F035FA074B9F
:1045D00018800023236010BD3C2206F03BFFF1E76A
:1045E0000E23F7E70123F5E7827F0020807F00207C
:1045F000074A6FF002039E4502D1EFF3098101E003
:10460000EFF308818869A0F102000078104700BF2D
:10461000A5450F0038B50446A8B13C210C4800223E
:1046200003F00AFA0B490B8883420ED1084A02F1C3
:104630003C0052F8045B44F8045B8242F9D1013338
:104640000B80002038BD0E20FCE70B20FAE700BFEE
:10465000827F0020807F00200B2970B5044615461C
:1046600008462FD92389053304EB43012044431A1C
:10467000DAB2012A26D9814224D8134806F0EAFE8C
:104680002388522B06D1AB0711D062884CF66863A1
:104690009A420CD00F2014E034F8022F824204D04A
:1046A000AE89964203F1010308D1002009E034F8F5
:1046B000081F00234FF6FE704FF440559942EBD887
:1046C0000B2070BD0920FCE75C84002008B50022A7
:1046D00003F0B2F9034B1B88834214BF0B20002068
:1046E00008BD00BF5C84002038B50C4C21684B1C11
:1046F000054612D00A484FF4805206F073FE48B1C6
:1047000015B1206800F0B0FC054920684FF48062C4
:1047100000F0CAFC4FF0FF33236038BD0480002056
:10472000688400202DE9F041DFF84480044624F439
:104730007F671846D8F8003027F00F07BB420D46B8
:10474000164609D0FFF7D0FF0848C8F800704FF4AC
:104750008052394606F07EFE0448C4F30B0432460C
:1047600029462044BDE8F04106F074BE688400206C
:1047700004800020BFF34F8F0549064BCA6802F43E
:10478000E0621343CB60BFF34F8F00BFFDE700BF74
:1047900000ED00E00400FA054BDF704710DF7047C2
:1047A00011DF704712DF704713DF704718DF704763
:1047B00060DF704769DF704761DF70471FB5002316
:1047C000CDE901330393684602230093FFF7EEFF20
:1047D00005B05DF804FB07B500230DF107008DF867
:1047E0000730FFF7DFFF9DF80730012B01D1FFF7FE
:1047F000D7FF03B05DF804FB08B54FF0E023D3F812
:10480000F03DDB0700D500BEFFF7B4FF014B187881
:10481000704700BF6A9400202DE9FF48B14B40F675
:104820000212C3F8402500F069FA00F0A3FE002050
:1048300000F03CFB00F01CFF48B1052000F036FB07
:1048400000F028FF00F04CFF062000F02FFB4FF097
:104850008043A54FD3F81C45B12C0CBF0123002386
:104860003B7041D0A4F1A8014A424A419F4D1346F2
:104870002A704FF08042D2F8001401F00108002B9A
:1048800040F00C814E2C31D0572C2FD0984B1B6808
:104890001A68984B9A4203D1B8F1000F40F0FE809D
:1048A0006D2C40F004814FF080430022C3F81C259A
:1048B00000F072FA00F098FDA0B100F0D9FE88B9BE
:1048C0004FF440535A688C4B9A4205D13B780BB950
:1048D000FFF774FFFFF77FFF854B1B6800221A600C
:1048E00000F09AFEFFF746FF0122BFE7C2F81C3531
:1048F00001262B78002B40F0DF80122000F084F995
:1049000010B12C2000F080F900F001032B7000F0B2
:104910006BFD774ADFF8E0B11168DFF800A281464D
:1049200020B11EB90B687548834214D04FF4405033
:1049300043685B450ABF83684FF4905303F50073E7
:104940001B68534500F0C780002E40F0C480B9F1C9
:10495000000F40F0B38000214FF4405012684368CC
:104960005B450ABF83684FF4905303F500731868E2
:10497000624B504518BF0023136011B9B9F1000F05
:1049800096D12B78002B00F0CB80082000F08EFA17
:104990003B780BB9FFF712FF01234FF474203B70F3
:1049A000FFF702FF564B57491868019001A8FFF71F
:1049B000F5FE554991F81623EC2352091341DA0705
:1049C00008D5524B9A68002A00F087801A6842F492
:1049D00080021A600C224E4B029300210DEB020064
:1049E000FFF7A0FC40F20113029A039303A94020B1
:1049F000FFF7E0FE0C2200210DEB0200FFF792FC16
:104A00009DF80C30029A43F0010303A9A0208DF811
:104A10000C30FFF7CFFE0C2200210DEB0200FFF758
:104A200081FC01261723029AADF80E3003A923203A
:104A30008DF80C60FFF7BEFE0C2200210DEB02008A
:104A4000FFF770FC0623029A8DF80C6003A9202062
:104A50008DF80E60ADF81030FFF7ACFE02A8FFF73E
:104A6000A7FE4FF4405328785A685A450ABF9B68FE
:104A70004FF4905303F500731B68534503D0572C34
:104A800001D04E2C56D1012240F6B83100F08AFDFB
:104A90002B78002B51D0FFF79EFE09E74FF08043A3
:104AA00000226D2CC3F81C257FF422AF00E71220F2
:104AB00000F0AAF806461CE7012025E7B8F1000F30
:104AC0003FF449AF0B4B0B60124B134843F001030B
:104AD0009847074A3FE701213EE74FF480030B6008
:104AE00078E700BF00A00040689400206A9400208E
:104AF00008800020D51A5A00DBE5B1517E67E54EEB
:104B0000D6B70F00F9470F0000E100E0B09A00208F
:104B100000800020D0B70F000048E8017CB0EE878D
:104B2000022000F0C3F9A4F14E035842584103F0AB
:104B300057FD96E700221146A8E703F0A1FDB7E66E
:104B400010B58EB03423ADF802300DF10201002310
:104B500001A8ADF80430FFF72FFE044640B9BDF8B8
:104B60000430102B07D0112B0CD001A801F048F80D
:104B700020460EB010BD054B01221A70072000F030
:104B800095F9F2E7014B18700820F8E769940020C6
:104B900013B5002301A80193FFF7FEFD044650B9A9
:104BA000019802F0ABFA019B093B022B03D8034AA0
:104BB000D05604F0CFFB204602B010BDC4B70F00A2
:104BC00008B5FFF7BDFF0528FBD1FFF7E1FF05287A
:104BD000F7D108BD0021024A084602F04DBE00BFD1
:104BE000C14B0F001F2884BF00F01F00044B054A73
:104BF00098BF4FF0A04300F5E07043F820207047C5
:104C0000000300500C0003001F288ABF064B4FF022
:104C1000A04300F01F00D3F8103523FA00F0C04382
:104C200000F00100704700BF00030050704770475C
:104C300000234FF0FF328360C0F80035C0F86025D4
:104C4000C0F86425C0F86825C0F86C2540F2FF3232
:104C5000C0F80435C0F80825C0F80C35C0F8103588
:104C6000C0F81435C0F82035C0F82435704700006E
:104C70001F4B1F294FF0000230B5C3F800258BBF32
:104C800001F01F0201F5E0721A4B4FF0A04388BFFC
:104C900002F5E0754FF0030496BF43F8224043F855
:104CA00025400A46012404FA02F2C3F80C2500F557
:104CB000AC700F4B002243F82010FF21C3F80425ED
:104CC0000220C3F808150421C3F80C15C3F8100519
:104CD0000948C3F81425C3F82005C3F82415C3F800
:104CE0002825C3F82C25C3F80045C3F8102130BD92
:104CF00000C00140000300506896002038B54FF016
:104D0000804301240025DC601220C3F818559C6004
:104D1000FFF768FF2C20FFF765FF184B4FF4C850D2
:104D2000234398472A212846FFF7A2FF2D2120463A
:104D3000FFF79EFFFFF77AFF114A1E21082002F0BD
:104D400077FD08B102F030FE02F0D0FC0D490E4BA9
:104D5000E02081F823001B684FF47A72B3FBF2F372
:104D6000013BB3F1807F08D24FF0E0225361002372
:104D700081F8230093610723136138BDE0B70F006A
:104D80006C94002000ED00E00C8000200148FFF74B
:104D90004FBF00BF00C001404FF0E023002110B51D
:104DA0001961FFF7F3FF154B154C4FF40032C3F8B0
:104DB000802003F1C04303F53C534FF48032C3F825
:104DC0004823C3F8082301225A609A604FF08043B9
:104DD0000220DA600B461F2BD5BF1A4603F01F02D4
:104DE0004FF0A041214602F5E0720133302B41F82B
:104DF0002200F0D1FFF71BFF10BD00BF00E100E073
:104E000000030050074B82B023F81010064B00221D
:104E1000C3F81021D3F810210192019A01229A605F
:104E200002B070476896002000C0014010B5184BD2
:104E30001C68184B1B68B4FBF3F103FB1141B1EB89
:104E4000530F4FEA530288BF591A4F235943B1FBFE
:104E5000F2F1C1F1FF0189B20020FFF7D3FF0E4B41
:104E60001B68B4FBF3F203FB1244B4EB530F88BF8F
:104E70001C1B5A088F2303FB04F1B1FBF2F1C1F1B3
:104E8000FF01BDE8104089B20120FFF7BBBF00BFA2
:104E9000709600206496002060960020024A1368F5
:104EA00001331360FFF7C2BF709600201A490A68E9
:104EB00008281FD8DFE800F00F050F1E1E161A2362
:104EC0002900164B40F6B83018604FF480539A42D0
:104ED00018BF0B607047114B4FF4967018604FF479
:104EE0008013F4E70D4B64221A6070470B4B40F6B9
:104EF000B830186002F0103323F08053E7E7084B16
:104F000040F6B83018601023E1E7054B4FF4967077
:104F100018604FF01013DAE75C96002064960020CA
:104F20006096002000F1804382B01A68002A14BF06
:104F30000120002004D000221A601B680193019B0D
:104F400002B070470F4A1378D3B903784FF080410D
:104F5000C3F34003C1F88035037803F00103C1F8BF
:104F60007835094B1968C90706D4E02183F8001386
:104F70000121C3F8801119600123044813707047A0
:104F8000034870478096002000E100E00000AD0B70
:104F90000C00AD0B014B02681A607047749600203C
:104FA0004FF080434FF46072C3F804237047000051
:104FB00010B54FF08043D3F80443620707D54FF490
:104FC0008470FFF7AFFF10B11E4B1B689847A30614
:104FD00008D54FF48A70FFF7A5FF18B11A4B0020CF
:104FE0001B689847600608D54FF48C70FFF79AFF4E
:104FF00018B1154B01201B689847210608D54FF4BE
:105000008E70FFF78FFF18B1104B00201B68984778
:10501000E20508D54FF49070FFF784FF18B10B4BF1
:1050200001201B689847A3050AD54FF49270FFF73B
:1050300079FF28B1054BBDE810401B6802201847D6
:1050400010BD00BF7C96002078960020749600204A
:10505000044AD2F80034DB07FBD50160BFF35F8F51
:10506000704700BF00E001404FF080531A69B0FB69
:10507000F2F302FB130373B9084B0222C3F80425B1
:10508000C3F80805D3F80024D207FBD50022044852
:10509000C3F8042570470348704700BF00E0014093
:1050A0000000AD0B0A00AD0BF8B50B4B1546012205
:1050B00006460F46C3F804250024A54204D1064B3A
:1050C0000022C3F80425F8BD57F8241006EB84002D
:1050D000FFF7BEFF0134F0E700E00140BFF34F8F60
:1050E0000549064BCA6802F4E0621343CB60BFF384
:1050F0004F8F00BFFDE700BF00ED00E00400FA05A0
:105100004FF08053D3E94C30002808BF082B0CBF68
:10511000012000207047000008B54FF08053D3F8FD
:105120003021082A4ED14FF080420021C2F80C11E4
:10513000C2F81011C2F8381502F54042D3F8041431
:10514000C2F82015D3F80814C2F82415D3F80C14AB
:10515000C2F82815D3F81014C2F82C15D3F814147B
:10516000C2F83015D3F81814C2F83415D3F81C144B
:10517000C2F84015D3F82014C2F84415D3F824140B
:10518000C2F84815D3F82814C2F84C15D3F82C14DB
:10519000C2F85015D3F83014C2F85415D3F83414AB
:1051A000C2F86015D3F83814C2F86415D3F83C146B
:1051B000C2F86815D3F84014C2F86C15D3F844341B
:1051C000C2F87035FFF79CFF18B1484B484AC3F846
:1051D0008C26FFF795FF18B1464BFB22C3F8182524
:1051E000FFF78EFF58B14FF080424FF08051D2F858
:1051F000E43ED1F8581261F30303C2F8E43EFFF72E
:105200007FFF20B13C4B4FF40072C3F840264FF0B3
:105210008053D3F83031082B09D14FF08043D3F8B5
:105220000024D10744BF6FF00102C3F80024334AC1
:10523000D2F8883043F47003C2F88830BFF34F8F40
:10524000BFF36F8F4FF01023D3F80C22D2071DD578
:105250002B4B0122C3F80425D3F80024002AFBD0ED
:105260004FF01022D2F80C3223F00103C2F80C32B6
:10527000234BD3F80024002AFBD00022C3F80425D6
:10528000D3F80024002AFBD0FFF728FFD3F8002230
:10529000002A03DBD3F80432002B22DA184B012258
:1052A000C3F80425D3F80024002AFBD04FF01022C5
:1052B0001221C2F80012D3F80024002AFBD04FF0CC
:1052C00010231222C3F804220D4BD3F80024002A25
:1052D000FBD00022C3F80425D3F80024002AFBD019
:1052E000D2E7084B084A1A6008BD00BF00500040D2
:1052F0004881030000F000400090024000ED00E013
:1053000000E001400C8000200090D00313DF7047C4
:1053100018DF7047064B10461A78012A03D101297D
:1053200004BF02221A7008B102F03EBB704700BFF2
:10533000C596002008B5FFF769FA88B111481C210D
:1053400001F06EFF08B102F02FFB0F490D4800235A
:105350001C2201F055FF98B1BDE8084002F024BBC3
:105360004FF47F20FFF780FE072207494FF47F208C
:10537000FFF79AFE054B1A78012A04BF02221A7021
:1053800008BD00BFC896002084960020C596002066
:1053900070B5124C124D134ED4F800347BB1C4F8E2
:1053A0000056C4F80456C4F80856C4F80C56C4F89D
:1053B0001056C4F81456C4F81856C4F81C5602F017
:1053C000C5FA05F06AFF20B104F086FD002005F063
:1053D00095F93378023B022BDED870BD0000014006
:1053E0003546526EC596002013B54FF44053124A0D
:1053F000596891420CBF9C684FF4805401A800F09A
:105400009DF92368013302D16368013311D0019BF8
:105410001A88012A0DD1588820B1996800222046A7
:1054200002F00AFB019B5B881B1A5842584102B0EC
:1054300010BD0020FBE700BFDBE5B15184B02DE9D2
:10544000F34108AC84E80F009DF82080BDF822707D
:1054500001A80E4615461C4600F070F9B8F1060F7B
:1054600010D8DFE808F00414332558496100304BA8
:105470000122FF215F809C601A8099802D4B1A7059
:10548000FFF758FF02B0BDE8F04104B07047284B69
:10549000721922449A60A5221A80C3E90365FF228B
:1054A0009A800C9A5F805C619A61224B0122E6E748
:1054B000019A1F4B11881980518892689A60AA221C
:1054C000C3E9036559809A805C61EEE7019A184B45
:1054D0001188A5290AD100229A60FF221A60FF22B2
:1054E0009A800022C3E903225A61DEE719805188BD
:1054F000926859809A60F2E7FFF788F940B100F0AE
:1055000089FD08B102F050FA0A4B03221A70B9E77C
:1055100000F008FAF5E7064B00229A60FF221A60B5
:10552000019A92889A80ABE7024B0422EEE700BF13
:1055300084960020C596002000B50C4B1B7889B0DE
:1055400063B90B4B1B786BB905238DF80C30079BA7
:10555000009303AB0FCBFFF771FF03E004F0B6FA43
:105560000028EED009B05DF804FB00BFC49600200F
:10557000A09600201FB50023CDE90233074B01930D
:1055800001F00EFE38B9064A4FF47F23114601A8F8
:10559000536001F023FE05B05DF804FB15530F00C6
:1055A000C896002080F001031A40164B70B50546DE
:1055B0000E461A7000F09CFF044628B935B100F081
:1055C00085FC0446FFF7E4FE204670BDBEB10E4BDD
:1055D0000E4A0F481D70294602F0B8F84FF40044F7
:1055E0004FF4FA7029464FF47A720023E6FB040167
:1055F00005F046FF2A460146064802F0B9F800F0D9
:105600006DF9DEE7C4960020A096002039550F0002
:10561000F8B70F00A49600201FB5134B4FF0FF32D0
:10562000C3F88020C3F880214FF440530F4A5968D3
:1056300091420DD19C682046FFF768FE10B14FF0F3
:1056400000531C60204604B0BDE8104000F09AB83A
:105650000023CDE902334FF4805406236846CDE998
:105660000034FFF755FEE9E700E100E0DBE5B1516A
:1056700007B501A800F062F8019B1A88A52A07D097
:105680009888A0F1AA035842584103B05DF804FB82
:105690000120FAE710B501F041F9A8B10E4B0F480F
:1056A00043F00103984701F0A3F808B102F07CF938
:1056B00001F034F908B102F077F901F0E5F8044699
:1056C00038B102F071F904E001F002F90446002853
:1056D000E4D1204610BD00BFF0B70F0000A8610064
:1056E00000B589B003AB142200211846FEF71AFE5C
:1056F00002228DF80C20002200920FC8FFF79EFEB8
:10570000FFF746FE002009B05DF804FB13B5044620
:1057100001A800F013F8019B1A8822805A88628041
:105720009A68A2609A88A280DA68E2601A692261A7
:105730005A6962619B69A36102B010BD014B0360AD
:10574000704700BF00F00F00F0B50346186880F303
:1057500008885868FF2464B2EFF30585002D01D155
:10576000A64600472546064621273FBAF0B4002446
:10577000002500260027F0B4F92040B2004700BF02
:10578000F0BD00BFFFF7E0BFF7B500230DF1020148
:1057900001A8ADF80230019302F086FD034600BB7C
:1057A000019805785DB3184A92F83010032928D083
:1057B0000C2707FB03F416191159E1B992F83030A0
:1057C00015510133DBB282F83030BDF802300F4A98
:1057D00004309B08013BB0600846736002F04CF84F
:1057E0000346019828B123B102F07AFD08B102F016
:1057F000DBF803B0F0BD0133042BDAD1F1E7072366
:10580000EFE70423EDE700BFD096002055580F00C6
:10581000084609B102F0C8B87047000010B50C2363
:105820000B4A4343D418D15881B192F83010A06884
:105830000139C9B282F8301004380021C4E90111DD
:10584000D15002F04DFD08B102F0AEF8002010BDBD
:10585000D09600201F4B70B501221F4E1A7096F88B
:10586000303003B970BD1C4C002523686BB1013B7F
:10587000042B07D8DFE803F019060F0325002046A4
:1058800000F0C8FEE8B2FFF7C9FF0135042D04F1AE
:105890000C04EAD1E3E7A3686360204600F05EFEF3
:1058A0000028EFD002F080F8ECE7204600F038FF47
:1058B00000F014FF08B102F077F80520FFF7F6FAC0
:1058C000E0E700F059FF00F077FFBDE870400620E8
:1058D000FFF7ECBAA0960020D096002008B50E4B3A
:1058E000002283F8302004210139C3E901221A6023
:1058F00003F10C03F8D1094800F02AFE02F06CFC19
:1059000008B102F051F8064802F052FC08B102F06A
:105910004BF8002008BD00BFD096002011580F00A2
:1059200089570F0008B50020FFF778FF0120FFF727
:1059300075FF0220FFF772FF0320FFF76FFFBDE83E
:10594000084002F091BC006870476CDF70476DDF63
:1059500070476EDF70476FDF704772DF704773DF2D
:10596000704774DF704776DF704777DF70477ADF04
:1059700070477CDF70477FDF704786DF70478FDFBF
:10598000704790DF7047AFDF7047B0DF7047B1DF1F
:105990007047B2DF7047B5DF704764DF704766DF7E
:1059A00070470C280AD8DFE800F00709090909093F
:1059B0000B091409090F0D000120704706207047DC
:1059C000032070470420704704290CBF05200620DF
:1059D00070470220704701F0E7BF10B50446084643
:1059E0000321FFF7DEFF0246204601F051F918B10E
:1059F000BDE8104001F0D8BF10BD00000346032BE6
:105A000010B50846144620D0042B23D169B1124B9F
:105A100018884FF6FF7398421CD01321FFF7A3FF9D
:105A2000C0B1BDE8104001F0BFBF104602F062F8FF
:105A300008B101F0B9FF094B1B689C420AD1012251
:105A40000321074801F024F9EAE70121FFF7A9FF44
:105A50000246F6E710BD00BF188000203C970020EA
:105A600094970020F8B50A4DAB889E181D2E144659
:105A70000DDC2F68FE1802F1010C07F803C07070EE
:105A8000B01C05F0E7FCAB8802331C44AC80F8BDC9
:105A900024970020F0B54E4E347893B0002C40F09F
:105AA0009380102221464B48FEF73CFC494A4A4B62
:105AB0001360214618220CA8FEF734FC01238DF850
:105AC000303028230E93454B1B78002B7ED0444B5F
:105AD00002AC03F1100518685968224603C2083366
:105AE000AB421446F7D13F48102202A905F07AFCD8
:105AF00000286BD03C4B3D4C1C6001211846FFF741
:105B000028FF08B101F050FF364B06AA03F1100C34
:105B1000174618685968154603C5083363452A4671
:105B2000F7D1A3798DF82E30314B2068A2880A90E6
:105B3000ADF82C200021012218461F60FFF70BFF53
:105B400008B101F031FF03238DF8443004238DF8B0
:105B5000063041F23053ADF80830264B06AA9B7947
:105B60008DF80A300DF1070102A8FFF716FF012298
:105B700010460DF10601FFF775FF1F4805F078FC90
:105B80001D49C2B20920FFF76DFF102206A90620A9
:105B9000FFF768FF0F4919480CAAFFF7DEFE08B1AE
:105BA00001F002FF154C042221780120FFF7DDFEF1
:105BB00008B101F0F9FE20780121FFF7D0FE08B10D
:105BC00001F0F2FE0123337013B0F0BD0623BEE7EF
:105BD0007E97002024970020049700204097002003
:105BE000B3B80F0049970020389700204297002053
:105BF0003497002094970020FCB70F0010800020FD
:105C0000F0B504460146B1B0A64801F075F8238806
:105C1000262B3BD80F2B04D8012B00F0CC8031B0C1
:105C2000F0BD103B162BFAD801A252F823F000BFAA
:105C3000B95C0F00C75C0F001F5C0F00F95C0F0020
:105C4000F35D0F001F5C0F001F5C0F001F5C0F0057
:105C50001F5C0F001F5C0F000F5E0F001F5C0F002A
:105C60001F5C0F001F5C0F001F5C0F001F5C0F000C
:105C70001F5C0F00815E0F001F5C0F00735E0F0042
:105C80001F5C0F001F5C0F00795D0F00513B9AB243
:105C9000052AC4D8052BC2D801A252F823F000BFB0
:105CA000C35D0F000F5E0F001F5C0F001F5C0F0035
:105CB000935E0F005F5D0F007B4BA2881A807B4BC9
:105CC00000221A70ABE78023774CADF82430784B74
:105CD000208832221A6010A9012309AAFFF759FE71
:105CE00008B101F061FE734B1B780BB9FFF7D2FED0
:105CF0004FF6FF73238092E76F4B03AC9A791868D5
:105D000099888DF822200790DA1DADF820101733FE
:105D1000264610685168254603C508329A422C462B
:105D2000F7D1664B09AA03F1180715461868596898
:105D3000144603C40833BB422246F7D118682060DA
:105D400059485F4A008810AB8521CDE91456FFF70A
:105D500012FE00283FF463AF01F026FE5FE7A3794F
:105D6000002B7FF45CAF504B13211888FFF7FBFD2D
:105D700000283FF454AF77E0237A012B7FF44FAF34
:105D80004A4B00221A704A4B19680139196069B9E7
:105D900010AB14221846FEF7C5FA05228DF84020F4
:105DA000149A00920FC8FFF749FB38E731B0BDE8FD
:105DB000F040FFF76FBE3C4B00211888FFF7EFFD66
:105DC000D6E7A379002B3FF42AAFA27B043A022A3C
:105DD0003FF625AF022B18BF01238DF840304FF45A
:105DE000C173ADF84430304B10A91888FFF7CDFDD2
:105DF000AFE7314A258A508D02F118010023854210
:105E000018BF19460732A088FFF7B7FDB0E7264C48
:105E100020884FF6FF75A84225D02A4B1B78EBB19E
:105E2000294901230822FFF7B2FDE8B902460146DD
:105E300002232088FFF7ABFDB0B920882A460C2149
:105E4000FFF7A1FDA0F54053023B012B7FF6E7AE23
:105E500008283FF4E4AE11288AD1E0E61A46194634
:105E6000FFF795FD84E7082031B0BDE8F04001F070
:105E70009BBD0D4B002218881146FFF782FD77E786
:105E80000023ADF84030084B10A91888FFF777FDC4
:105E9000C5E6E188044B1729188828BF1721FFF7AA
:105EA0007AFD65E794970020188000207E970020F7
:105EB0001480002080970020429700205A970020ED
:105EC000C4970020409700207697002030B5434AC1
:105ED0004348002395B01370424A137000F038FB1A
:105EE00001F0C8FD0446002861D13F48FEF792FB4F
:105EF00000285FD13D4B01221A7011233C488DF8D8
:105F0000043005F0B5FA3A4982B201A8FFF731FD35
:105F100008B101F049FD0822002104A8FEF702FAA9
:105F2000344A4FF0C87304A8CDE90423FFF71FFDDE
:105F300008B101F039FD00210C2201A8FEF7F2F9A9
:105F40000823ADF804302C4B02932C482C4B0393C0
:105F500001A900F021FD08B101F026FD294D4022E4
:105F6000002104A8FEF7DEF9284605F081FA059520
:105F7000254DADF81000284605F07AFA0795234D17
:105F8000ADF81800284605F073FA1123ADF830007B
:105F900004A8ADF84C300D9500F0BEFF1C4B30222C
:105FA0001A7007225A7010229A70FFF773FD20466C
:105FB00015B030BD04A8FFF7CAFC08B101F0F4FC2D
:105FC0009DF8113004A801338DF81130FFF7BDFCA6
:105FD000002892D001F0E8FC8FE700BF80970020F6
:105FE000FD590F0091970020429700204097002014
:105FF000FCB70F000800180065600F0094970020A0
:10600000D7590F0003B80F000DB80F0021B80F00CB
:10601000C497002010B50F4B01221A700E4B188840
:106020004FF6FF73984207D01321FFF79CFC08B18D
:1060300001F0BAFC002010BD084C2378002BF9D0E9
:10604000074B1878FFF78DFC08B101F0ADFC002379
:106050002370EFE780970020188000207E970020B3
:1060600010800020F0B50B7889B005460C46092B4E
:106070002ED8DFE813F026002F003A000A0019009E
:106080002300000109013D000E0100F075FB042111
:10609000FFF787FC0246284600F0FAFDC0B109B0C0
:1060A000BDE8F04001F080BCFFF7B4FF00F084FBD6
:1060B00070B109B0BDE8F04000F08CBBFFF7AAFF5B
:1060C000F7E7764B01221A704B681A78744B1A70F6
:1060D00009B0F0BD714B02261E704B681B78012B76
:1060E000F6D100F0FBFA3146D2E76C4B0322EEE723
:1060F0000520FEF7DBFE694B1E78022E37D0032EFB
:1061000059D0012EE4D104AB102218460021FEF72D
:1061100009F9634A237A12788DF81020002203923D
:106120000C2B4FF00302CDE9012008D03146284660
:1061300000F0AEFD0028CBD001F036FCC8E7636864
:106140001846FFF700FC0590181DFFF7FCFB0690B2
:1061500003F10800FFF7F7FB079001A800F0FEF934
:106160000028B5D03146FFF71CFC0246DFE7237A52
:1061700013F0030012D0C0F104021A44D2B219463F
:106180004FF0000C0E4601316768C9B2914207F822
:1061900006C0F7D11B1A0433DBB22372012204922A
:1061A0009B086268069204A8059300F0B9FA0028DB
:1061B0008ED00221D7E7207A830702D032463146BB
:1061C00069E7384E0190314601F06AFC014618B18A
:1061D0002846FFF702FC7BE76168019A306805F00A
:1061E00039F9019801F0C2FC01460028F0D101A95B
:1061F000304601F0CBFC01460028E9D1042304938A
:10620000019B9B08059304A83368069300F002FAEB
:10621000074640B9244A237A11680B441360234B84
:1062200032681A6054E709281BD11F4B217A1A687B
:10623000114419601E4B1B78002B3FF449AF1D4CD5
:106240002388013B9BB22380002B7FF441AF28467B
:1062500000F0E4FC08B101F0A7FB174B1B8823807A
:1062600036E7306801F046FC014610B12846FFF7DA
:10627000B4FB3946ACE70E4B01221A700E4A8B88EC
:1062800013800C4A138023E7094A002313700A4A3B
:10629000F8E7054B196800F085FCFFE691970020B0
:1062A00090970020849700208C9700203C97002036
:1062B0007F970020889700208A97002018DF70477A
:1062C0000129F8B50D4614461E4607D0032912D001
:1062D0000CB32046BDE8F84001F066BB0E4B1B78BE
:1062E000052BF5D10D4B1B68002BF1D03246214612
:1062F00004209847ECE7084F3B78022BE8D1084B85
:106300005B689847054B3D701B68002BE0D0324618
:1063100021462846EDE7F8BD40980020D897002098
:10632000CC97002030B589B003AC14220021204660
:10633000FDF7F8FF094B1B88ADF80E30084BDB6802
:1063400006930025079B8DF80C50009394E80F00EE
:10635000FFF774F8284609B030BD00BFE897002069
:106360002C98002000B589B003238DF80C300A4B1F
:106370001B88ADF80E30094B5A6804929A68DB68A6
:106380000693079B0093059203AB0FCBFFF756F8DC
:10639000002009B05DF804FBE89700202C9800204D
:1063A00000B589B001238DF80C300F4B0F4A1B88C4
:1063B000ADF80E304FF440535968914208BF9A68C7
:1063C0000B4B5968049118BF4FF480529968DB68F1
:1063D00006930591009203AB0FCBFFF72FF8002037
:1063E00009B05DF804FB00BFE8970020DBE5B15180
:1063F0002C98002000B589B003AB14220021184668
:10640000FDF790FF04228DF80C20002200920FC8A7
:10641000FFF714F809B05DF804FB0000184BF7B55E
:10642000184D1D60184B02221A70FEF7EFF9174B3A
:106430000446196840B1284600F0F2FEF0B103B0FE
:10644000BDE8F04001F0B0BA4D1E2D0B104F0135E4
:106450004FF440567368BB420CBFB0684FF4805095
:1064600000EB04300134FEF7FFFDA542F2D8002313
:10647000044800931A460321FFF722FF03B0F0BD42
:10648000DC970020E0970020409800203C980020F6
:10649000DBE5B151F0B51F4685B00323CDE90030EF
:1064A0000546960868460C4602910396FFF706FFDC
:1064B000E0B1B4F5805F11D801236846CDE900351D
:1064C000CDE90246FFF7FAFE80B903236846CDE91D
:1064D0000035CDE90246FFF7F1FE07E03B463A46BC
:1064E000E11BE81BFFF7D6FF0028E5D005B0F0BDA3
:1064F0001FB5104B0193104B104900241C70104B1A
:1065000001A8CDE902441C8000F068FE70B94FF488
:1065100040530C4A59689142084A0CBF9B684FF49B
:1065200080535360084B00221A600124074B1C70F3
:1065300004B010BDC1620F00EA970020E097002070
:10654000E8970020DBE5B1514498002040980020F6
:10655000014B1860704700BFD897002038B54368DA
:10656000224C0FCB84E80F002378590701D59A07F6
:1065700035D16068850732D1A26891072FD1E168D3
:1065800011F003042BD1104408441949B2F5204FEF
:10659000086026D84FF44052164955688D420ABF0C
:1065A00092684FF46922C2F56A22904219D8DA073C
:1065B00013D4114A13F0020F104B08BF1346104AB0
:1065C000104911601049C2E90113104B1B78012BCF
:1065D00009D1FFF723FF204638BD0D4BEFE7062416
:1065E000F9E70C24F7E70824F5E700BF2C98002012
:1065F0003C980020DBE5B15125630F0065630F0077
:10660000CC9700201D640F00F5630F004098002018
:10661000A1630F002DE9F34100284DD08668B30730
:106620004CD1294B1B78052B4AD1284D42682B6849
:10663000274F03EB820394003A68934206D94FF048
:10664000FF332B600C2002B0BDE8F081FEF7DEF8CE
:10665000DFF88480D5F800C098B1D8F80000634610
:106660002246314600F0CCFD0028ECD12B681C44BA
:106670003B682C609C4225D1FEF7C8F8C8B10020C9
:10668000E1E74FF4405313495A688A420CBF9868B7
:106690004FF480502246314660440023FEF742F812
:1066A0000094D8F80000334600220121FFF708FECD
:1066B000DCE7FEF719F8E2E70E20C4E71020C2E796
:1066C0000820C0E70920BEE7409800204498002039
:1066D0003C980020DBE5B151DC97002070B50B4BF6
:1066E0001D6885B90A4E3378042B0CD1094C0A4B2E
:1066F00021781A780948FDF7AFFF10B905233370E8
:1067000070BD2570FCE70820FAE700BF4498002020
:1067100040980020EA9700202C980020EB9700205A
:10672000F8B5114B1A78032A04D0042A04D008249F
:106730002046F8BD04221A700C4B1C68002CF6D1C0
:106740000B4D43682F789E0007EB8303402B09D83D
:10675000816808483246384404F07CFE2B78334484
:106760002B70E5E70924E3E74098002044980020D7
:10677000EA970020EB97002010B50B4C2378052BEF
:1067800010D10A4B0A4A1B68116899420AD10623A4
:106790002370084B1B685868FDF798FF08B907235A
:1067A000237010BD0820FCE7409800203C98002092
:1067B00044980020DC970020044B1B78072B02D163
:1067C000034B9B6818470820704700BF4098002083
:1067D000CC97002000B589B006238DF80C30079BBC
:1067E000009303AB0FCBFEF729FE09B05DF804FB65
:1067F000F0B58DB005A8FEF789FF089C002C3ED0AF
:106800000B9E04F58053B3422DD91E4DA6F580533F
:1068100005EA53054FF440539B689C420BD869002E
:106820002B46A4EB450201F5805106EB4500FFF72E
:1068300031FE0DB0F0BD05F58053012701A8CDE96B
:106840000173CDE90337FFF739FD0028F1D14FF48B
:10685000805301A8CDE9023301970497FFF72EFD7D
:106860000028E6D1DBE70123CDE90136A4084FF487
:10687000805301A803930494FFF720FDD9E7204635
:10688000D7E700BF00F0FFFF00B58DB005A8FEF709
:106890003DFF099880B1089B8BB94FF440530B4AD8
:1068A000596891420ED19B6880080022039001A88C
:1068B000CDE90123FFF702FD0DB05DF804FB0B9A53
:1068C0001344F1E74FF48053EEE700BFDBE5B1512D
:1068D00000B58DB005A8FEF719FF099898B1089B7F
:1068E000A3B94FF440530C4A5968914211D19B68A7
:1068F0000393800803214FF47422049001A8CDE98A
:106900000112FFF7DBFC0DB05DF804FB0B9A13449A
:10691000EEE74FF48053EBE7DBE5B15110B58CB0F7
:1069200005A8FEF7F3FE0898B8B10B9C00F580535C
:10693000A34214D94FF440539B6898421BD80F4B85
:10694000A4F5805203EA52035900A0EB430201F57B
:10695000805104EB4300FFF79DFD0CB010BD800893
:1069600003224FF48053049001A8CDE9012303943E
:10697000FFF7A4FCF1E70E20EFE700BF00F0FFFFF8
:10698000A8DF7047AADF7047ADDF7047AEDF704702
:10699000B0DF704762DF70472DE9F0470E4694B0D4
:1069A0000546002800F0F780002900F0F4804B68CD
:1069B000002B00F0F0804FF6FF730380774B04AAA2
:1069C00003F1100718685968144603C40833BB4222
:1069D0002246F7D141F230530DF10A0104A8029387
:1069E000FFF7D8FF0446002840F0D1802A1D02A9F5
:1069F0000120FFF7C5FF0446002840F0C8809DF83D
:106A00000A30AB7101461C220DA8FDF78BFC9DF8E6
:106A100034300E9443F004038DF8343001AFAB7979
:106A20008DF80E30214641F2325303223846CDE92B
:106A30001044CDE91244ADF80C30FDF773FC9DF81D
:106A4000063023F01F0343F00303214614224FF4C2
:106A5000885A08A88DF80630ADF804A00DF10C088E
:106A6000FDF760FC4FF01409A8880A9405F10803AB
:106A700008AA0DA90C94CDE90887ADF82C90FFF772
:106A800081FF0446002840F0828001461C220DA8A8
:106A9000FDF748FC9DF834300E9423F0180343F0C2
:106AA00018038DF83430AB798DF80E30214641F261
:106AB000315303223846CDE91044CDE91244ADF8F4
:106AC0000C30FDF72FFC9DF80630ADF804A023F044
:106AD0001F0343F0130321464A4608A88DF80630E9
:106AE000FDF720FC1723ADF82C30A8880A9405F197
:106AF000100308AA0DA90C94CDE90887FFF742FFFF
:106B00000446002843D101461C220DA8FDF70AFCCB
:106B10009DF834300E9443F002038DF83430AB7995
:106B20008DF80E30214641F2345303223846CDE928
:106B30001044CDE91244ADF80C30FDF7F3FB1123FE
:106B4000ADF804309DF8063023F01F0343F0030333
:106B500021464A4608A88DF80630FDF7E3FB0223DC
:106B60000A93ADF82C30A8880C9605F1200308AAEA
:106B70000DA9CDE90887FFF705FF044638B973680A
:106B8000AB62B36803B1EB62054B01221A70204679
:106B900014B0BDE8F0870E24F9E700BFC3B80F00BA
:106BA0004F98002070B5054686B070B302884FF646
:106BB000FF739A422BD0174B1B7843B3164C10220D
:106BC000080AE170207121FA02F0090E072301265C
:106BD0006071A17102A800216370ADF806302270C7
:106BE000A670FDF79FFB2B8AADF808300023ADF8A7
:106BF0000C3028888DF80A600DF1060302A9CDE952
:106C00000434FFF7C3FE06B070BD0E20FBE708207A
:106C1000F9E700BF4F9800204898002030B504469F
:106C200087B060B302884FF6FF739A4229D0164BA3
:106C30001B7833B3154D11232B700B0A6970AB70A1
:106C40000B0C090EEB70297105230021102202A8FC
:106C5000ADF80630FDF766FB238AADF80830012356
:106C60008DF80A300023ADF80C3020880DF10603B2
:106C700002A9CDE90435FFF789FE07B030BD0E202B
:106C8000FBE70820F9E700BF4F9800204898002054
:106C900030B5134687B0044630B300884FF6FF7214
:106CA000904223D0124A127802B3124D6970032128
:106CB0001022ADF8061002A80021AB702A70FDF773
:106CC00031FB238AADF8083001238DF80A30002308
:106CD000ADF80C3020880DF1060302A9CDE904358A
:106CE000FFF754FE07B030BD0E20FBE70820F9E7A0
:106CF0004F9800204898002070B50D4688B0044693
:106D000050B149B1826A3AB10B88502B49D005D8AD
:106D1000102B43D0112B54D008B070BD512BFBD198
:106D20008E79022EF8D10A89038A9A42F4D18B7B9C
:106D3000043B022BF0D99DF816308DF8106043F01B
:106D400001038DF816300B8AADF818304B8AADF878
:106D50001A30082201F1140301A800210793FDF75E
:106D6000E1FAA18A2088019601AACDF808D0FFF7A0
:106D70000BFE48B3E36A03B1984740F2FD13208845
:106D8000ADF8143004A9FFF703FE0028C4D0E36A6D
:106D9000002BC1D008B0BDE8704018478B88238015
:106DA000BAE7C98803899942B6D108238DF8103013
:106DB000123535F8023C8DF81830059504A9904736
:106DC000AAE74FF6FF73EAE7BDF800302088DB073B
:106DD000D3D5002604A9ADF81460FFF7D9FD00282B
:106DE000D5D1297D4B1E072B3ED8DFE803F00419CF
:106DF0002226282A3B2C6B8A8DF80460012B05D8AB
:106E0000062201212046FFF743FFBEE70123153587
:106E10008DF80C300295A36A01A9204698477BE7BC
:106E20006A8A01239A428DF80430F0D806220221A2
:106E3000E8E702238DF80430EDE70323FAE70423A3
:106E4000F8E70523F6E76B8A022B02D80322082114
:106E5000D8E7B5F81530ADF80830002B14BF06237D
:106E60000723E7E70923E5E70322CBE7A8DF70471D
:106E7000AADF70472DE9F04180468EB016461F46C6
:106E80000D4611B9084600F08FFD1C220DEB0200E3
:106E90000021FDF747FA9DF81C30ADF8048000246E
:106EA00043F002038DF81C3021460123032268467B
:106EB0008DF80630CDE90A44CDE90C440894FDF77D
:106EC00031FA3B788DF800307B788DF801309DF8F1
:106ED000023023F01F0343F002032146142202A8CC
:106EE0008DF80230FDF71EFA0A48ADF8106001ABCC
:106EF000E846CDE9023802AA149B0088ADF812409A
:106F000007A9ADF814600695FFF7B2FF0EB0BDE813
:106F1000F08100BF7098002030B587B041F60A03B9
:106F20002D4AADF80C30044603A901208DF80E005F
:106F3000FFF79CFF0546D8B92288E2B922894AB1F9
:106F4000264B0093E16804F13C0342F62420FFF74E
:106F500091FFD8B9228C4AB1214B0093616A04F1A8
:106F60003C0342F62620FFF785FF78B9A36B7BB977
:106F7000284607B030BD1B4B0093616804F13C0309
:106F800042F62920FFF776FF0028D7D00546EFE725
:106F90001A788DF810205A888DF81120120A8DF871
:106FA00012209A88DB888DF815301B0A8DF8132083
:106FB0008DF81630120A0C4B8DF81420009307221E
:106FC00004F13C0304A942F65020FFF753FF0028C8
:106FD00018BF0546CCE700BF7098002060980020DD
:106FE00058980020689800205098002029DF7047AA
:106FF00028DF7047064B182202FB003000230422D2
:10700000C0E90423037183608361C360704700BFDC
:107010008C98002013B502460846C968436800935F
:10702000044B53F82140436910F80C1BA04702B0F1
:1070300010BD00BF7C98002038B5194C2378182269
:1070400002FB03431A795869012A03D0032A1AD094
:107050000F2038BD134A996915689A68DB68A2EB5E
:107060000532B2F5805F184401EB053100EB0530C5
:1070700034BF92084FF48062FFF7B8FF0028E8D1D0
:107080000123A370E5E74FF080531B699BB2B0FB6F
:10709000F3F0044B1B681844FFF7AAFFEEE700BFAC
:1070A0008C9800207498002070B5134D6C780A2CD1
:1070B0001FD02E783444E4B2092C84BF0A3CE4B2D9
:1070C000182606FB0454A261207103C9A360049B27
:1070D000E360AB7804F1100282E8030023B10020E2
:1070E0006B7801336B7070BDFFF7A6FF1128F7D1E5
:1070F000F5E70420F7E700BF8C98002038B5264C50
:10710000A3782BB100230228A37002D003283BD020
:1071100038BD25782149182202FB05420B68926888
:107120000133B2EB033F0B6019D86B1CDBB2627802
:107130000020092B08604FF0180188BFA5F1090352
:1071400002F1FF3201FB0541D2B288BFDBB204314C
:1071500062702370FFF75EFF2846FFF74BFF6378EE
:10716000002BD5D0A378002BD2D1FFF765FF0028E4
:10717000CED01128CCD02178182303FB0141043153
:10718000BDE83840FFF746BF2378182202FB0341D1
:1071900004310D20F4E700BF8C9800207498002083
:1071A00008B50A4B00211960094B198099700846EF
:1071B0000131FFF71FFF0A29F9D1064B00201860A3
:1071C000054BC3E90000C3E9020008BD7498002024
:1071D0008C980020789800207C980020064A03466E
:1071E0001068042807D00860411C11601A68034B1E
:1071F00043F8202000207047789800207C980020D9
:1072000013B55C180C43A40708D1009313460A4633
:1072100001460120FFF748FF02B010BD1020FBE738
:1072200007B500220B46009201460320FFF73CFF02
:1072300003B05DF804FB082910B5044602D0002015
:1072400000F0B2FBD4E90030BDE810401847000060
:10725000204B21491A682F2300BF00BF00BF00BF89
:1072600000BF00BF00BF00BF8A422FD000BF00BFD9
:1072700000BF00BF00BF00BF00BF00BF00BF00BF16
:1072800000BF00BF00BF00BF00BF00BF00BF00BF06
:1072900000BF00BF00BF00BF00BF00BF00BF00BFF6
:1072A00000BF00BF00BF00BF00BF00BF00BF00BFE6
:1072B00000BF00BF00BF00BF00BF00BF00BF00BFD6
:1072C00000BF00BF00BF00BF00BF00BF013BC3D174
:1072D000704700BF0C8000200024F4000C4B0D48C8
:1072E0004FF4003210B5C3F8802001244FF48033EE
:1072F000C0F84833C0F808334460FFF7A9FF064BD5
:10730000846000201860FFF7A3FF044B187010BDC5
:1073100000E100E0001001408C99002081990020DC
:10732000F7B5002406460DF107000F468DF807401B
:1073300000F048FB0F4A9DF80700557891786B1CC8
:10734000DBB2994208BF2346117899421BBF18212E
:1073500001FB052504242F711CBFAE60537000F0A3
:1073600055FB24B9044B4FF48012C3F8002120468A
:1073700003B0F0BD9499002000E100E0F7B5244986
:10738000244B0025C1F84051C1F84451C1F848517F
:10739000C1F84C51C1F80051C1F804511B68002BD1
:1073A00031D0D1F804451C490968641A24F07F449F
:1073B0002F461A68A24212D8A41A15441A7CDE6914
:1073C00062B15A691F7400929B69144A01930821A3
:1073D000684600F051FA08B100F0E6FAAEB9104A7A
:1073E000104913780978994205D10133DBB2022B99
:1073F00008BF002313700C4A42F823500B4B4FF484
:107400008012C3F8002103B0F0BD3346D1E700BFBE
:1074100000100140909900208C99002037720F00D5
:1074200082990020839900208499002000E100E0E7
:107430002DE9F74FA248A34A03781278A24C9A424A
:1074400057D00133DBB2022B12BF1A46002213467B
:107450009E4902709E4A0F6852F823003B1823F0A1
:107460007F4300220B60236816461546944613B9E5
:1074700042B1236006E01968814228D902B1236035
:10748000091A19604FF0010B2368DFF85C82009342
:107490004FF0000A002E46D03046F6698B4B456807
:1074A0001A688C4F8368A91A21F07F41B94200F213
:1074B000E2800B4401210174216803600022C0E9CD
:1074C0000122C261002940F0DE802060E2E7401A1C
:1074D0000D44D968D3F81CE0C3F800C031B17A1963
:1074E00022F07F42C3E90121DE611E46734601227C
:1074F000BDE70026B346C7E798F802002568531C8D
:10750000DBB2984208BF002388F80030182303FB41
:10751000028213799068022B67D0032B00F09580CC
:10752000012B00F0958098F8002098F801309342E4
:10753000E2D12368BAF1000F05D1009A9A4202D134
:10754000BBF1000F42D0002B00F0B680D3F80090C2
:10755000614C5E4BD4F804651868604F351A3B786F
:1075600025F07F4503359BB94FF48033C4F844338D
:10757000C4F804335A4B4FF400324FF00108C3F8FB
:1075800080211A60C4F80080FFF762FE87F800804F
:10759000A9452CBF4844401920F07F40C4F840055D
:1075A000D4F804359B1B23F07F43801B033320F06A
:1075B0007F4083420AD9D4F80435C4F84035FFF738
:1075C00047FE474B4FF40032C3F80021454B0022E1
:1075D0001A7003B0BDE8F08FB84209D03A46FF698F
:1075E000002FF9D1002303749DE72F462A46F7E7C1
:1075F00090421ED1D5F81C90C4F80090B9F1000F4C
:107600000BD1354B019201219960304BC3F80090AA
:10761000344B1970FFF71CFE019A3B68FF69D76174
:1076200017B13A6813443B60A94518BF4AF0010AF4
:10763000D8E7A946F1E72A74ED690123002DFAD1B4
:10764000002B3FF470AF25606DE700231A46F5E785
:10765000057C002D7FF467AFD168416013698360BA
:107660005369C360936983611E4B1B78002B18BF5D
:107670002946416012E7521B22F07F429A4234BFF2
:107680009B1A002316E70A689A4213D3D21A0A609B
:10769000C1611AE75B1BD56911463DB12A461568E1
:1076A000AB42F7D8ED1A156015460A460360C5616E
:1076B000D061EFE60A46F2E7FFF710FE86E700BF6B
:1076C0008399002082990020909900208C990020B5
:1076D00084990020FEFF7F00001001408199002066
:1076E00000E100E0809900209499002008B5FFF7A0
:1076F000F5FD104B00200B2218809A700E4B18607D
:107700000E4B18700E4B18700E4B4FF48012E02188
:10771000C3F8802183F814131A6002F18042A2F5A5
:107720006F22C2F8080583F81113074BD2F804251D
:107730001A6008BD94990020909900208399002038
:107740008299002000E100E08C990020074B9B7893
:107750004BB132B128B10368187C20B959745A6111
:107760007047072070470820704700BF9499002099
:107770002DE9F347234EB378074688469146002B00
:107780003CD000283AD0042936D94369002B35D0A3
:10779000437C0024012B0DF107000CBF8A46A24652
:1077A0008DF8074000F00EF97378B2785D1CEDB2E9
:1077B000AA4208BF25463278AA421BD0182202FBF3
:1077C000036301221A71104A9F60D2F80425757074
:1077D000C3E90328C3E905A99DF8070000F016F9DD
:1077E00074B90A4B4FF48012C3F80021204602B04E
:1077F000BDE8F0870424EFE70724F7E70824F5E75E
:107800000424F3E7949900200010014000E100E017
:10781000064A92783AB130B1426922B1002202742C
:107820000221FFF77DBD0820704700BF949900201A
:107830004B1C30B5DB00044612F003009BB20DD1A7
:10784000074D2A601A44074B1A60074B1870074B04
:107850001870074B1C80074B198030BD0720FCE7D0
:10786000AC9A0020A89A0020A49A0020A59A002093
:10787000A29A0020A09A00202DE9F347DFF8C480E7
:10788000B8F800308B4206460D4617464DD300240B
:107890000DF107008DF8074000F094F8254B264ABB
:1078A00026481B78008892F800C084455FFA8CF166
:1078B00038BF0131DBB238BFCCB2A3422FD014782D
:1078C0001178CBB2884286BF0133DBB20023E4B229
:1078D00013709DF8070000F099F84FF6FF739C4273
:1078E00025D0DFF86490D9F800304FEAC40A43F895
:1078F000347003EBC402AEB1A5B1114BB8F800006F
:107900001B682A4604FB0030314603F0A3FDD9F87A
:10791000003053449D80002002B0BDE8F0874FF650
:10792000FF74D6E700239380F5E70920F4E70420ED
:10793000F2E700BFA59A0020A49A0020A09A002098
:10794000A89A0020A29A0020AC9A002070B5104C92
:10795000104D22782B789A4200D170BD0E480F4A04
:107960002378126806880E4802EBC301006852F8BB
:107970003320898803FB060090470A49227809884A
:10798000D3B2914286BF0133DBB200232370E0E71C
:10799000A59A0020A49A0020A29A0020AC9A002068
:1079A000A89A0020A09A00201FB50021CDE902105E
:1079B00001AA44F20100ADF80410FCF71DFF05B068
:1079C0005DF804FB70B5EFF3108672B60C4A94684C
:1079D000012384B993600B4B0B4DD3F880102940E1
:1079E0001160C3F88050D3F8841051604FF0FF321B
:1079F000C3F884202346037006B962B670BD00BF89
:107A0000B09A002000E100E0FC06FFBD10B5084B75
:107A10009A685AB150B9EFF3108172B6054A1C68E2
:107A200014605C685460986001B962B610BD00BF14
:107A3000B09A002000E100E003462AB110881A46FF
:107A400019448A4203D170474FF6FF70F7E743BAF3
:107A500012F8010B9BB25840C0F3031343401BB212
:107A600083EA03331BB2580100F4FF50434098B23D
:107A7000E7E70000064B074A00201870064B1A6023
:107A80000822C3E90120C3E90300C3E905007047E8
:107A9000B8AD0020D89A0020BC9A00200020704782
:107AA00030B50446E9B1124B5A6800200860D2B1E3
:107AB000B4F5167F19D8013A5A60DA681C680132A9
:107AC000DA601A694FF4177505FB02440C60996976
:107AD000012494400132214302F0070299611A61A6
:107AE00030BD0E20FCE70420FAE70C20F8E700BFC9
:107AF000BC9A0020F0B51C498A6892B34D690E68A3
:107B0000AC1A04F0070423464FF4177707FB036C05
:107B1000604510D1886901259D406840886100203A
:107B20004E68D1F818C04FF0010E7344002516447A
:107B300003F007030AE0013303F007039D42E5D198
:107B40001020EDE74AB1013A1C4601250EFA04F473
:107B500014EA0C0FA6EB0207F4D00DB1C1E90172D3
:107B6000F0BD0420FCE700BFBC9A0020064A136960
:107B70001268013B4FF4177103F0070301FB032365
:107B8000C3F8580200207047BC9A002030B5C0B13D
:107B9000B9B10E4BDA68B2B1013ADA609A681C6882
:107BA00001329A605A694FF4177505FB024404606C
:107BB0000132D4F85802086002F007025A6100202E
:107BC00030BD0E20FCE70420FAE700BFBC9A00207D
:107BD0003FB40C49086890B10B4B1C687CB10B4A50
:107BE0001568CDE9025000238DF804300B60136056
:107BF00004AB13E90700234604B030BC184704B0B7
:107C000030BC7047BCAD0020D4AD0020C4AD002016
:107C1000DC2810B509D0DD2810D0C02816D1FFF718
:107C2000D7FF0E4B0E4A1A6010BD0E4A0E4B196854
:107C30001368581C1060C022CA54F2E7094A0A4B64
:107C400019681368581C1060DB22F5E7064B054ADB
:107C5000196813685C1CC8541460E2E72080002097
:107C6000817C0F00BCAD0020C4AD0020C02802BF45
:107C7000014B024A1A60704720800020817C0F006F
:107C8000C02810B409D0DB280BD0094B094A196869
:107C900013685C1CC854146006E05DF8044BFFF7E1
:107CA00097BF054B054A1A605DF8044B704700BF4B
:107CB000C4AD0020BCAD002020800020117C0F004E
:107CC00007B501228DF807000DF10701002002F031
:107CD00055FDB0FA80F04009800003B05DF804FB68
:107CE00010B5064A064C12682368D05CFFF7E8FF1F
:107CF00010B923680133236010BD00BFD0AD002050
:107D0000C8AD002008B5C020FFF7DAFF28B9034B43
:107D10001B6813B9024B034A1A6008BDC8AD0020A6
:107D20001C800020E17C0F0008B5DB20FFF7C8FFB6
:107D300010B9024B024A1A6008BD00BF1C80002027
:107D4000457D0F0010B50C4A0C4C12682368D35CBB
:107D5000C02B03D0DB2B0DD0042010BDDC20FFF79F
:107D6000AFFF0028F8D12368054A01332360054B93
:107D70001A60F2E7DD20F2E7D0AD0020C8AD0020A8
:107D8000E17C0F001C8000207FB5174C174D184E6A
:107D9000002002F093FC20B322688AB1296833687E
:107DA00099420DD2012201A9002002F093FC08B9EA
:107DB000FF2001E09DF804000E4B1B689847E7E7A1
:107DC0000D4B1B686BB10292084A022112680392A4
:107DD0008DF8041004AA12E9070004B0BDE8704051
:107DE000184704B070BD00BFC4AD0020BCAD00207A
:107DF000C0AD002020800020D4AD0020014B1860D1
:107E000000207047D4AD0020034B1A780AB9012234
:107E10001A700020704700BFD8AD0020014B002031
:107E200018707047D8AD00202DE9F04F85B00028BC
:107E30004ED0284F3B78012B06D0022B0CBF0420DC
:107E4000082005B0BDE8F08F234CDFF89C90234E4E
:107E5000234DDFF89880DFF898A0DFF898B0C9F8D4
:107E6000001000232360022330603B70C5F80080BF
:107E70002268D9F800309A4214D3C5F80080FFF781
:107E800041FF18BB174B1B6801223A70F3B18DF804
:107E90000420326802922268039204AA12E90700C1
:107EA000984713E0336822689A5CC02A03D022689E
:107EB0009B5CDB2B04D12B68534508BFC5F800B091
:107EC0002B689847042801D01128D1D10020B8E7A9
:107ED0001020B6E7D8AD0020C8AD0020D0AD0020FE
:107EE0001C800020D4AD0020CCAD0020057D0F000B
:107EF000E17C0F00297D0F00054B064A1860064BF8
:107F00001960064B00201860054B1A60704700BFCF
:107F1000C4AD00206D7C0F00C0AD0020BCAD0020C2
:107F200020800020064B07481B68DB00DBB20022E4
:107F3000037004215B4242708270C370FFF774BF0C
:107F400018AE0020D9AD002010B52A4C0246237887
:107F5000012B11D0022B1DD00BBB02BB2648FFF713
:107F600057FC08B1FFF720FD244B1B68BBB1244A26
:107F7000BDE8104010781847012A10D1214B19682C
:107F8000214B06311868FFF74FFF08B1FFF70CFDD2
:107F900002230CE0022A1AD0032A01D052B110BDEC
:107FA0001A4A1368013303F0070313600023237098
:107FB0000022CCE7164B10481A6041F67F21FFF7EC
:107FC000D7FB0028EBD0BDE81040FFF7EDBC104A0E
:107FD0001368052B0AD0013313600A4B19680A4B4A
:107FE000BDE8104018680631FFF71EBF044B0122A0
:107FF0001A70DBE728AE0020E8AD002024AE002098
:10800000E2AD00200CAE002010AE002014AE002027
:10801000E4AD0020F0B585B004AB03E907009DF89E
:108020000400032878D8DFE800F00802AAAD012098
:1080300005B0BDE8F040FFF787BF039E534C032E09
:1080400040F28480029D6B7813F00F0269D00E2AF3
:108050007CD1042E59D02A78500656D5110654D515
:108060001A44AB781A44EB781A4412F0FF024CD150
:10807000B71E39462846FFF7DFFCEB5B834244D14D
:1080800043492A780B6802F00702D8B282422FD106
:10809000013303F007030B60FFF744FF3D4B012260
:1080A00030461A70FFF762FD08B1FFF77DFC3749D3
:1080B0004FF41670FFF7F4FCB0B1042810D1364825
:1080C0000521FFF719FF08B1FFF76EFC334B1B6862
:1080D000002B59D04FF0000005B0BDE8F040184724
:1080E0000020FFF761FCEAE720684FF41671E8E72B
:1080F00020684FF41671FFF7FFFE08B1FFF754FC3C
:1081000005B0BDE8F040FFF70DBF20684FF41671D1
:10811000FFF7F2FE002837D005B0BDE8F040FFF7CA
:1081200043BC2A78A97813440B44E9780B44DBB2AA
:1081300063B91B4B1B68013383EAD20313F00703B7
:1081400004D1184A03201370FFF7FEFE25681DB105
:108150004FF416712846DBE70C494FF41670FFF711
:108160009FFC18B920684FF41671D1E7042802D19A
:1081700009480521CCE72846FFF716FCF8E7064832
:108180000521C5E70320C7E705B0F0BD1CAE002000
:1081900018AE002008AE0020DDAD002020AE00208B
:1081A00014AE0020E2AD00200220FFF7CDBE00009B
:1081B000074B10B5044618600648FFF71FFE08B1CC
:1081C000FFF7F2FB002C0CBF0E20002010BD00BFFB
:1081D00020AE002015800F00184A1948002310B562
:1081E0001360184A1360184A1360184A1370184A2B
:1081F0001370184B184A01211960184B1960184B5D
:108200001970FFF7A3FA08B1032010BDFFF732FC85
:108210000028FAD1FFF7F8FD0028F6D1114C4FF4F1
:1082200016702146FFF73CFC0028EDD120684FF482
:108230001671BDE81040FFF75FBE00BF10AE002012
:10824000D4B80F000CAE0020E4AD002008AE002032
:1082500028AE002018AE0020A9810F0014AE002027
:10826000E2AD00201CAE00200C4A08B500231360CC
:108270000B4A1360FFF712FC08B1FFF795FBFFF7FD
:10828000CDFD08B1FFF790FB0648FFF7C1FA0428BF
:1082900002D10020FFF788FB002008BD24AE00209B
:1082A00020AE0020E8AD002037B50D46044698B159
:1082B00091B10A4B19780022019259B101A91A70A3
:1082C000FFF764FC019B063B2B802368043323608B
:1082D00003B030BD0420FBE70E20F9E708AE002014
:1082E0000438FFF707BC18DF70470000F0B51D46E3
:1082F000154B87B018680F4659681B7A03AC03C446
:108300002370124B18685968114B009301AC03C4D9
:108310002046164603F0ACF821460246384603F0E4
:1083200099F801A803F0A4F801A90246304603F029
:1083300091F8684603F09CF869460246284603F027
:1083400089F807B0F0BD00BF44B80F004DB80F006A
:10835000312E30000120704710B51C460B781E2BC3
:1083600006D000232022052102F04EFC204610BD3D
:108370000024FBE7F8B5069F14460D463A46002157
:1083800018461E46FBF7CEFF7CB14FF0E023D3F832
:10839000F03DDB0700D500BE4FF0FF30F8BD2846AA
:1083A00000F0F8F9013504F50074BC4206EB040155
:1083B000F5D32046F2E70000F8B5069F0D461E46AD
:1083C0000024BC4206EB040101D32046F8BD054A57
:1083D000284600F0ADFA0028F7D0013504F5007406
:1083E000EFE700BF2CAE002030B5264D2A7A8DB0C5
:1083F0009AB107AC1422002120460625FBF792FF14
:108400008DF81C500B9B009394E80F00FDF716F8B5
:108410000620FCF74BFD0DB030BD2B68002BFAD0C9
:10842000194B197819B105201A70FCF73FFDD5E9F1
:1084300000329A42EFD307AC142200212046FBF70A
:1084400071FF6B7ADBB106234FF420424FF47421A5
:108450004FF460208DF81C3002F0C4FF0028D1D00A
:108460001022002103A8FBF75DFF4FF460224FF4B8
:10847000205303A8CDE90423FFF735FFC2E78DF8A9
:108480001C30BFE72CAE002024800020024B0B6084
:108490004FF40073138070470901010001207047F9
:1084A00000487047ED800020044B054A1878054BC2
:1084B000002818BF1A461046704700BFDBB00020E6
:1084C0008B800020408000202DE9FF411E4B18705A
:1084D00020B11E4B60229A726122DA721C4A1D4D35
:1084E000DFF878C017461C4BEE4603F110066C46C9
:1084F00018685968F046A8E803000833B342C64636
:10850000F6D12B7803F00F0310336B4413F8103CB3
:10851000D373114B18685968A646AEE803000833B8
:10852000B3427446F6D115F8013B04A901EB1313CD
:10853000654513F8103C9373A2F10202D3D10023D6
:108540003B7404B0BDE8F081DBB00020ED8000207A
:10855000CAB000206000001055B80F00680000107D
:1085600010B570B9134B14481968022202F072FF5B
:1085700001230133DBB211485B0043F440730380F5
:1085800010BD052813D80B4B53F82040204602F0AD
:108590006FFFC3B21F2B28BF1F23084A2046E118D4
:1085A0008842E6D010F8014B22F8024FF8E700208D
:1085B000E6E700BF288000204AB0002048B0002035
:1085C0004DDF70474EDF70474FDF704750DF704719
:1085D00012DF704700F0BEBE002000F029BD000091
:1085E0001FB5244B402283F8272300238DF8073042
:1085F0004FF4405304465A681F4B9A4227D10DF15D
:108600000700FFF7E5FF9DF8073003B30120FFF7F0
:10861000D9FF0120FFF7D4FF0120FFF7D5FF02A803
:10862000FFF7D4FF029BDA0702D5002000F092FE8C
:10863000029B9B0702D5022000F08CFE2046FFF72C
:1086400043FF00F027F802F01BFE04B010BD00232A
:1086500001A88DF80430FCF775FC084B039303A8C0
:10866000FCF798FCFCF79CFC4FF08043D3F83834BF
:108670000293D7E700E100E0DBE5B151D5850F00BB
:10868000012000F067BE0120FCF710BC0220FCF7BF
:108690000DBC00007FB52F492F4802F0CCFE4FF4EF
:1086A00040532E4A596891424CD11A78102A46D923
:1086B000142A186944D95B69294CB3FBF4F50A22E2
:1086C00001A904FB153402F08BFE2649224802F072
:1086D000B2FE01A9204802F0AEFE23491E4802F076
:1086E000AAFE0A2201A9284602F07AFE01A91A4828
:1086F00002F0A1FE1D49184802F09DFE4FF47A7663
:108700000A2201A9B4FBF6F5284602F069FE01A988
:10871000114802F090FE15490F4802F08CFE0A2223
:1087200001A906FB154002F05BFE01A90A4802F010
:1087300082FE0F49084802F07EFE04B070BD0020A2
:108740000023B9E70B49044804B0BDE8704002F0CB
:1087500072BE00BF71B80F00FF800020DBE5B15191
:1087600040420F007EB80F007CB80F0080B80F00A9
:108770008BB80F0082B80F0010B503461C1AA24236
:1087800000DC10BD0C781CB1013103F8014BF5E79A
:108790002024FAE72DE9F0410C4605464FF400721B
:1087A00000212046FBF7BEFD65B95A493E2220460E
:1087B00002F050FE552384F8FE31AA2384F8FF31DD
:1087C000BDE8F081B5F5017F29D86B1EB3F5817F37
:1087D00024BF6FF4817805EB08034BB9F8222270AF
:1087E00004F109012246FF2002F8010F8A42FBD161
:1087F0001B02002240F69360191FB1F5696F03F167
:10880000010106D2834214BF8BB24FF6FF7324F8E6
:1088100012300132B2F5807F0B46EDD1D0E7B5F5CD
:10882000027F3BD86FF4017C65443DB920463A494C
:108830000B22FFF7A1FF2823E3722034374B2E01D0
:108840004FF0000803EB05256627022EB8D80B224F
:1088500029462046FFF790FF5B231A226FF0730131
:108860006374E3746376B31C84F80D80A773E173BB
:108870002274A27484F8148084F81580A775E175B9
:1088800022766383E86830B102F0F2FDE0610136E0
:1088900020341035D9E74FF4E910F7E7204B9D421B
:1088A0008ED86FF40277EA19012A0DD81B4B03EB1F
:1088B0000213DD68284602F0DBFD29460246204609
:1088C000BDE8F04102F0C6BD6FF4FD76A9190902BA
:1088D000B1F5801FBFF474AF124B236003F1144352
:1088E00003F52C1303F6023363600F4BC4F8FC311D
:1088F0004FF46963A3614FF40053A5F20B254FF4C5
:108900008072A360094B6561E1602261E36104F15B
:108910002000D5E7DAB80F0005B90F0018B90F002D
:10892000080101005546320A306FB10A6061501DDE
:10893000F7B5644B14460A689A420D4608D103F114
:1089400014434A6803F52C1303F602339A4203D00A
:108950004FF0FF3003B0F0BDD1F8FC215A4B9A42E2
:10896000F6D18B6823F4FF5323F01E039B049B0C6A
:10897000B3F5005FECD10B69B3F5807FE8D1C8682F
:1089800010F0FF06E4D1CB69504A934205D0504A1B
:10899000934243D04F4A9342DAD1A0F58053B3F5C6
:1089A000692F07D201234FF4807205F12001FBF7F4
:1089B000B9FE02E0B0F5805FCAD2AB695BB3226852
:1089C000934207D041F263018B4200D80AB14FF0C5
:1089D000FF3323606B6941F2630293421BD803F0BB
:1089E000070204EBD303012191401A7B1142C8B264
:1089F00004D16168024301311A736160D4E9003225
:108A00009A4208D30120FBF76FFE637A1BB1A37A69
:108A10000BB9012323724FF400709BE701276772A3
:108A2000CB68B3F1102F17D104223431684602F01D
:108A300011FD042205F138010DEB020002F00AFDE0
:108A4000009BB3F5742F03D1019BB3F57E2F01D0AA
:108A500027727DE7A772B0E7A3F57422B2F5204F25
:108A600028D2E27A01F12007DAB91B4A934218D3DF
:108A70002B69B34215D90422B919684602F0EAFC01
:108A8000009BD02B14D10422311D0DEB0200394480
:108A900002F0E0FC0F4B019A9A424FF001030ED115
:108AA000E372E8682A6901233946A0F5A0307EE721
:108AB0000836DDE7B3F5805FFFF47FAF0123237253
:108AC00046E700BF5546320A306FB10A4028A5ADCF
:108AD0003C8263D66061501D00D80F004FF0805378
:108AE000D3F83001082802D1D3F8343123B9A0F1EA
:108AF0000D0358425841704701207047094B01222D
:108B000083F8D8200260BFF36F8FBFF34F8F064A00
:108B1000904202D0043A904202D1002283F8D82039
:108B2000704700BFDCB000205070024042DF704749
:108B300043DF704744DF704712DF704707B54FF4DB
:108B4000405300205A68084B9A420AD18DF807001A
:108B50000DF10700FFF7F0FF9DF80700003818BF80
:108B6000012003B05DF804FBDBE5B15107B5FFF769
:108B7000E5FF58B1002301A80193FFF7DBFF01983F
:108B8000003818BF012003B05DF804FB4FF08043AC
:108B9000D3F80C0400F00110A0F101135842584121
:108BA000F1E7000010B5134B134A5B68C3F30803E9
:108BB00083B9EFF310836BB910494B681B0609D5D5
:108BC0008024C1F8844092F8D8308BB9FFF796FF23
:108BD0004C6010BD92F8D83033B10146BDE810406A
:108BE0000748012201F071B8BDE81040FFF786BFC9
:108BF0004C60E6E700ED00E0DCB0002000E100E0C2
:108C0000A58B0F000D4B182202FB0033598A1A8ADC
:108C1000521A998A92B28A4228BF0A46D968142306
:108C2000434303F1804303F51C33C3F80016C3F834
:108C30000426034B03EB8000FFF7B4BFDCB0002039
:108C400004700240074BD3F8C024D10309D406496D
:108C50000648D1F8C010C3F8A017C3F8A427FFF73F
:108C6000A1BF704700700240DCB000204870024095
:108C7000082870B402D170BCFFF7E4BF0F4D104A52
:108C800000F594731821414352F823406B18A4B2A5
:108C9000DE889B8869589B1B9BB2A34228BF234652
:108CA000142404FB0022C2F80017C2F80437054B55
:108CB00070BC03EB8000FFF775BF00BFDCB0002085
:108CC000007002402870024070470000014B802273
:108CD0005A60704700E100E0024B8022C3F8842014
:108CE000704700BF00E100E0074BD3F80014D3F851
:108CF00000240A43C3F800240022C3F858214FF48B
:108D00008002C3F8042370470070024070B5887871
:108D1000404D00F07F0318220C26C4095A4306FB7D
:108D200004228E882A44C6F30A061681CA7802F005
:108D30000302012A29D00121374A01FA03F5D4B9E7
:108D400003F10C06B140C2F80413D2F8141503F570
:108D500094732943C2F8141542F823402E4BC3F8EC
:108D6000180540F48070C3F80C05BFF36F8FBFF394
:108D70004F8F012013E002339940C2F80413D2F858
:108D800010352B43C2F81035E8E7082B08D04FF018
:108D9000E023D3F8F03DDB0700D500BE002070BD16
:108DA0001D4BDCB9B5F8D42012B18022C3F81C25C4
:108DB0000022C3F85021D3F8002312F4001208BF98
:108DC000C3F85421144B4FF44012C3F80423D3F8D2
:108DD000142542F48072C3F81425BFE70022C3F8BB
:108DE0002C21B5F8C82012B18022C3F81C25D3F875
:108DF000002312F4001208BFC3F85421064B074A9F
:108E0000C3F80423D3F8102542F48072C3F8102568
:108E1000A4E700BFDCB00020007002400008200082
:108E20001D4B2DE9F041802201241C4DDFF8788094
:108E3000C3F88420274604F10C03A21C07FA02F2AF
:108E400007FA03F31343C5F80833A30003F1804383
:108E500003F51C33002618225E6002FB04809E622C
:108E600031460134FBF75EFA082CE4D10C4BC5F80F
:108E700008331822C5F81C650A486E623146AE6494
:108E8000FBF750FA044BC5F814758022C5F810752D
:108E90005A60BDE8F08100BF00E100E000700240D0
:108EA000000830009CB10020DCB00020F7B51F4660
:108EB00001F07F0018231F4CCD090E4643430C21BF
:108EC00001FB053104EB010C62500022ACF8047088
:108ED000ACF8062020BBF7B9174BD3F88034C3F3A6
:108EE000C0139D4217D01548FFF75CFE144B5B681A
:108EF000C3F30803003B18BF012300933A463B46E7
:108F00003146384600F0CAFE012003B0F0BD0D48DE
:108F1000FFF748FEF8E7002DF9D0FFF773FEF3E7FF
:108F2000002DFAD11C44A37A002BEDD0A572FFF7D7
:108F30009FFEE9E7DCB00020007002405070024064
:108F400000ED00E04C70024011F07F0008B507D141
:108F50000D4B01225A65BFF36F8FBFF34F8F08BDD2
:108F60000828F8D0084B41F48072C909C3F81825C5
:108F7000F1D1064B182202FB00339A7A002AEAD07C
:108F80009972FFF775FEE6E700700240DCB0002042
:108F900011F0770F12D00A4B41F48072C3F80C1510
:108FA000C3F80C25CA09C3F8181504BF01F594715C
:108FB00043F82120BFF36F8FBFF34F8F704700BF7F
:108FC0000070024008B5174B01220021C3F8142598
:108FD000C3F810250A468B0003F1804303F51C33C8
:108FE000013108295A609A62F5D10E4B0E485A6237
:108FF0009A64C3F85821D3F80014D3F800240A4324
:10900000C3F80024D3F80023C3F80823074AC3F8A1
:1090100004230021DC22FBF785F9034A40239382D5
:10902000138108BD00700240DCB000200514C001AF
:109030002DE9F04FB34BB44AD3F80013002385B0A9
:109040001C4601201D4621FA03F6F6070BD552F8FF
:10905000236046B100FA03F6344342F82350BFF3CD
:109060006F8FBFF34F8F0133192BECD1E20706D579
:10907000FFF7A8FF00210122084600F0E0FD14F4EC
:10908000006FA24D08D09F4BD3F8A8369BB2A5F82D
:10909000D230012385F8D730A30221D5994ED6F8D6
:1090A000143513F4807302D0FFF7CCFD0123D6F8FA
:1090B0001025D70540F11A8195F8D7305BB1B5F886
:1090C000D2200023012185F8D73092B200911846B2
:1090D000882100F0E3FD01220321002000F09CFD27
:1090E000600228D5874BD3F8006406F4E062F105EE
:1090F000C3F8002406D50122C3F82C250421002042
:1091000000F08AFD72050FD57E4B0122C3F80825B9
:109110009A65D3F8002312F4001208BFC3F8542153
:109120004FF40012C3F80423B30504D5012205212E
:10913000002000F071FD27022BD5724BD3F880146C
:10914000C9B28DF80810D3F88424D2B28DF8092062
:10915000D3F888048DF80A00D3F88C048DF80B003E
:10916000D3F890048DF80C00D3F894048DF80D001A
:10917000D3F898048DF80E00D3F89C348DF80F3096
:109180004E0601D1052A04D0012202A9002000F0D8
:109190006CFD5F4B23405BB195F8D830002B40F05D
:1091A000AD804FF0E023D3F8F03DD80700D500BEE6
:1091B000DFF85891DFF84CB14F4600264FF0140A03
:1091C0004FF0180806F10C0324FA03F3D90720D551
:1091D0000AFB06B33A68D3F8083708FB065152FA7F
:1091E00083F23A60CA88DBB213FA82F292B2082E96
:1091F000CA8000F093803A899A4240F08F80CB88F1
:10920000BA889BB29A4240F2898016B94148FFF76A
:10921000C9FC0136092E07F11807D3D13E4B234074
:10922000002B60D0374BD3F86CA4C3F86CA4BFF309
:109230006F8FBFF34F8F14F480641CBFD3F880444A
:10924000D3F88074DFF8C4801DBFC7F3C017C4F320
:10925000C01487F00107274600264FF0180B2AFAA2
:1092600006F3DA0701D4EEB9E4B1264B142202FB6F
:109270000633D8F80C20D3F8083652FA83F2C8F82F
:109280000C200BFB0652F0B2518A89B251FA83F3DB
:109290009BB25382538AB8F810109BB299424BD9B3
:1092A000FFF7B0FC0136082E08F11808D7D10024CA
:1092B00018264FF0010804F110032AFA03F3DB0724
:1092C00001D45CB957B106FB0452B9F80410D38835
:1092D0009BB299423BD9E0B2FFF7CAFC0134082C9B
:1092E00009F11809E7D105B0BDE8F08F002B7FF434
:1092F000F2AE4FF40013C6F80833ECE6002385F80D
:10930000D83055E70070024000710240DCB0002008
:10931000FCFB1F004C7002400004000108FB0653D8
:10932000F1B2DA88BA80DA8801230093002392B27E
:10933000184600F0B3FC6CE7528A01230093002327
:1093400040F0800192B2184600F0A8FCAAE782F82B
:109350000A80C3E7012813B5044600F0C380022841
:1093600059D0002855D1784BD3F80025002A50D188
:109370004FF48002C3F808234FF40062C3F80024BE
:10938000BFF36F8FBFF34F8FFFF7A8FB60B16F4B39
:10939000D3F8001C032269BB49F27531C3F8001CE5
:1093A000C3F8142DC3F8001C4FF08053D3F83031AC
:1093B000082B0CD1654BD3F8001CC022E9B949F247
:1093C0007531C3F8001CC3F8142CC3F8001C5E4BA5
:1093D0000124C3F80045BFF36F8FBFF34F8FFFF732
:1093E000C5FBB0B9FFF7AAFB50B102B0BDE8104011
:1093F000FFF79CBBC3F8142DD6E7C3F8142CE6E79F
:109400004FF08043C3F80001D3F800210192019A84
:109410001C6002B010BD4C4CD4F804351BB1FFF7F2
:10942000A5FB0028F5D1D4F800341B05FBD54FF47B
:109430000063C4F80034BFF36F8FBFF34F8F4FF05A
:109440008053D3F83031082B0CD1404BD3F8001C9B
:1094500000293FD149F27532C3F8002CC3F8141C1F
:10946000C3F8002CFFF73AFB58B1384BD3F8001C77
:10947000A1BB49F27532C3F8002CC3F8141DC3F820
:10948000002C4FF08053D3F83031082B2E4B0AD1EB
:1094900040F2E372C3F800284022C3F80428BFF367
:1094A0006F8FBFF34F8F80220121C3F81C25C3F8B3
:1094B0000413274BC3F884215A60FFF757FB002899
:1094C000FBD0214B0122C3F80425BFF36F8FBFF3FC
:1094D0004F8F9EE70022C3F8142CC3E70022C3F885
:1094E000142DCEE7184BD3F80025002A91D0002286
:1094F000C3F80425BFF36F8FBFF34F8F144980204B
:10950000C1F88400D3F80013C3F80813C3F800258A
:10951000BFF36F8FBFF34F8FFFF710FB78B1FFF7EB
:1095200007FB0C4B5A68C2F30802003A18BF01222D
:109530000221002002B0BDE8104000F06DBB4FF0EA
:1095400080435C60EDE700BF0070024000E0064031
:1095500000E100E000ED00E00A44034690B28842DA
:1095600002D39A89824202D25B89184480B2704742
:1095700082888A4210B504D884898B1A9BB29C4297
:1095800003D243891A44891A8BB2038210BD93080F
:1095900013B501EB8303044699420BD112F0030289
:1095A00006D0002301A8019301F054FF019B236022
:1095B00002B010BD51F8040B2060EDE72DE9F34730
:1095C000BDF82850AB42A3EB05068946194638BFC3
:1095D0004389B6B23CBFF31A9EB28388B342804639
:1095E000144604D2FFF7C4FF058A8688ADB20EB3D5
:1095F000A64228BF2646B8F80440AC421ED9B8F8A7
:109600000620D8F80030671B341B2C4402FB0535BC
:109610009DF82C30B9B214FB02F417FB02F7012BB2
:10962000BFB2A4B218D08E420BD872432946484626
:1096300001F010FF304602B0BDE8F0872D1BADB23F
:10964000DBE73A462946484601F004FFD8F8001007
:10965000224609EB0700EBE78E4207D816FB02F221
:1096600092B229464846FFF792FFE3E727F003024C
:109670001FFA82FA524629464846FFF788FF17F03C
:1096800003072AD0C7F104039BB2A3424FF00001A5
:1096900028BF234605EB0A02E41A019101A9A4B2EE
:1096A000D5190846AA420FD1CA19D8F800100B44A0
:1096B000521A994201EB02000BD1019BC9F800300C
:1096C000002CB7D02246CDE712F801CB00F801CB31
:1096D000E8E711F8015B0570EBE7D8F80010EFE759
:1096E00013B5930800EB8303984209D112F00302EB
:1096F00004D00B68019301A901F0ACFE02B010BDCB
:109700000C6840F8044BEFE770B59A42A2EB0304F3
:109710001D4638BF4389A4B238BFE41A838838BFD6
:10972000A4B2A3420E46114602D2FFF721FF84885D
:1097300074B18388AB4208D9C2880168304602FB05
:10974000051101F087FE012070BDED1AADB2F1E701
:109750002046F9E72DE9F74F8A46B0F80E90018AC6
:1097600085881646027A07461FFA89F989B2A2BB94
:109770008945A9EB010238BF418992B23CBF521A18
:1097800092B2AA1A92B2964228BF16464C46AC42F2
:109790002CD2A5EB0408FA883868751B25441FFAFB
:1097A00088F115FB02F518FB02F8012B1FFA88F867
:1097B000ADB202FB040426D08E421AD87243514641
:1097C000204601F047FE324649463846FFF7C4FEC0
:1097D000F881304603B0BDE8F08FAE42D6D3C288E0
:1097E000761B02FB06AA89462E46CFE7641BA4B26D
:1097F000CDE742465146204601F02CFE38682A4605
:109800000AEB0801DDE78E4207D816FB02F292B29E
:1098100051462046FFF764FFD5E728F0030B1FFAF7
:109820008BFB5A4651462046FFF75AFF18F00308B3
:1098300029D0C8F1040080B2A84228BF2846DAF82F
:10984000003001932D1A0BF1FF3B01A9ADB25C442E
:1098500043460A46013B11F801CB04F801CF13F04F
:10986000FF03F7D13B6842441844D21A984203EBF5
:10987000020104D1002DA6D02A465146CAE7097834
:1098800003F8011BF2E73868F4E7B2F5004F10D88F
:1098900082805200C38092B29DF800300372531E42
:1098A000838152420023C3810160428103820120EF
:1098B000704700207047C189028A89B292B29142F2
:1098C000A1EB020338BF428980889BB23CBF9B1A40
:1098D0009BB2984228BF18467047C289038A92B249
:1098E0009BB2D31A58425841704710B5C189028AB9
:1098F000848892B289B29142A1EB020338BF4289B7
:109900009BB23CBF9B1A9BB2E01A80B210BD38B527
:10991000C289038A04469BB292B2FFF7F5FE218A00
:109920000546024689B22046FFF716FE20822846E9
:1099300038BD73B5C389058A0026ADB20446CDE9AA
:1099400000569BB2FFF73AFE218A0546024689B2CD
:109950002046FFF701FE2082284602B070BD38B5D0
:10996000C589028AADB292B2AA42A5EB020388BFB2
:1099700042899BB288BF9B1A828888BF9BB29A4259
:10998000044614D1007A90B938BD801A80B2904252
:10999000FBD2E288236802FB003001F05BFD01226C
:1099A00029462046FFF7D8FDE0810120ECE7284654
:1099B000EDE712B10023FFF7CDBE1046704700233C
:1099C000C381038283885B009BB25A1E5B42828103
:1099D0004381012070470172012070470B4B5BB13E
:1099E0000B4B1B78834205D90A4B1B68182202FBDC
:1099F00000307047C01AC0B201289FBF4042064BDA
:109A000000F01800C01888BF002070470000000058
:109A10007DB2002080B20020C8B90F0070B5104E92
:109A2000054600243378E0B20133834204F1010497
:109A300010DA372200210B48FAF774FC1022FF21BC
:109A40000948FAF76FFCBDE8704008481222FF2170
:109A5000FAF768BCFFF7C2FF436828469847E1E77A
:109A60007DB2002084B2002087B2002097B200208F
:109A700070B50C4605461646C86800F08FFDE368D1
:109A8000324628460021BDE87040184770B50546AB
:109A90000E4614462AB90378012B02D11046FFF76F
:109AA0001BF93146281DFFF75AFF06462CB92B78C3
:109AB000012B02D12046FFF709F936B94FF0E02318
:109AC000D3F8F03DDB0700D500BE70BD024B5878DF
:109AD000003818BF0120704784B20020024B18786C
